{
  "transactions": [
    {
      "hash": "0x46d9295a2f6b748fb66e5954ebc02a71095970f5d77cce48de28010f1770bb5e",
      "transactionType": "CALL",
      "contractName": null,
      "contractAddress": "0xaf76e904d7d38d4aa9d815f607578bf9927647d1",
      "function": "mintNft(string)",
      "arguments": [
        "ipfs://bafybeig37ioir76s7mg5oobetncojcm3c3hxasyd4rvid4jqhy4gkaheg4/?filename=0-PUG.json"
      ],
      "transaction": {
        "from": "0x2ec00933fa8f16cf4397fabaf56406d17c1252a1",
        "to": "0xaf76e904d7d38d4aa9d815f607578bf9927647d1",
        "gas": "0x321f7",
        "value": "0x0",
        "input": "0xda86f4a900000000000000000000000000000000000000000000000000000000000000200000000000000000000000000000000000000000000000000000000000000057697066733a2f2f62616679626569673337696f6972373673376d67356f6f6265746e636f6a636d3363336878617379643472766964346a71687934676b61686567342f3f66696c656e616d653d302d5055472e6a736f6e000000000000000000",
        "nonce": "0xf",
        "chainId": "0xaa36a7"
      },
      "additionalContracts": [],
      "isFixedGasLimit": false
    }
  ],
  "receipts": [
    {
      "status": "0x1",
      "cumulativeGasUsed": "0xb1c631",
      "logs": [
        {
          "address": "0xaf76e904d7d38d4aa9d815f607578bf9927647d1",
          "topics": [
            "0xddf252ad1be2c89b69c2b068fc378daa952ba7f163c4a11628f55a4df523b3ef",
            "0x0000000000000000000000000000000000000000000000000000000000000000",
            "0x0000000000000000000000002ec00933fa8f16cf4397fabaf56406d17c1252a1",
            "0x0000000000000000000000000000000000000000000000000000000000000001"
          ],
          "data": "0x",
          "blockHash": "0x8921260f957debff1fb56ae2000979677b29e43ab523143a63e88071abbc448f",
          "blockNumber": "0x77c820",
          "blockTimestamp": "0x67ca8b6c",
          "transactionHash": "0x46d9295a2f6b748fb66e5954ebc02a71095970f5d77cce48de28010f1770bb5e",
          "transactionIndex": "0x87",
          "logIndex": "0xdf",
          "removed": false
        }
      ],
      "logsBloom": "0x00000000000000000000000000000000000000000000000000000000000000000000000000000000000000000000000002000000000000000000000000040000000000000000000000000008000000000000000000040080002000000000000000000000020000000000000000000800000000000000000000000010000000000000000000000000000000000000000000000000000000000000000000000000000000000000000000000000000000000000000000000000000000000400000000000002000000000000000000000000000000000400000000000000000060000000000000000000000000000000000004000000000000000000000000000000",
      "type": "0x2",
      "transactionHash": "0x46d9295a2f6b748fb66e5954ebc02a71095970f5d77cce48de28010f1770bb5e",
      "transactionIndex": "0x87",
      "blockHash": "0x8921260f957debff1fb56ae2000979677b29e43ab523143a63e88071abbc448f",
      "blockNumber": "0x77c820",
      "gasUsed": "0x2449d",
      "effectiveGasPrice": "0xf81565",
      "from": "0x2ec00933fa8f16cf4397fabaf56406d17c1252a1",
      "to": "0xaf76e904d7d38d4aa9d815f607578bf9927647d1",
      "contractAddress": null
    }
  ],
  "libraries": [],
  "pending": [],
  "returns": {},
  "timestamp": 1741327211,
  "chain": 11155111,
  "commit": "6430ecd"
}