{
  "transactions": [
    {
      "hash": "0x99f66677d95d09784fb5f11765fd55f02191e8d966cbf318d61512d997e1de60",
      "transactionType": "CALL",
      "contractName": null,
      "contractAddress": "0xaf76e904d7d38d4aa9d815f607578bf9927647d1",
      "function": "mintNft(string)",
      "arguments": [
        "ipfs://Qmc33sjPLbVLVEcnPhsuYBPboz9K63NJi4ty7XMGWNnQaa/?filename=SHABA.json"
      ],
      "transaction": {
        "from": "0x2ec00933fa8f16cf4397fabaf56406d17c1252a1",
        "to": "0xaf76e904d7d38d4aa9d815f607578bf9927647d1",
        "gas": "0x413a2",
        "value": "0x0",
        "input": "0xda86f4a90000000000000000000000000000000000000000000000000000000000000020000000000000000000000000000000000000000000000000000000000000004a697066733a2f2f516d633333736a504c62564c5645636e50687375594250626f7a394b36334e4a6934747937584d47574e6e5161612f3f66696c656e616d653d53484142412e6a736f6e00000000000000000000000000000000000000000000",
        "nonce": "0xe",
        "chainId": "0xaa36a7"
      },
      "additionalContracts": [],
      "isFixedGasLimit": false
    }
  ],
  "receipts": [
    {
      "status": "0x1",
      "cumulativeGasUsed": "0x96da76",
      "logs": [
        {
          "address": "0xaf76e904d7d38d4aa9d815f607578bf9927647d1",
          "topics": [
            "0xddf252ad1be2c89b69c2b068fc378daa952ba7f163c4a11628f55a4df523b3ef",
            "0x0000000000000000000000000000000000000000000000000000000000000000",
            "0x0000000000000000000000002ec00933fa8f16cf4397fabaf56406d17c1252a1",
            "0x0000000000000000000000000000000000000000000000000000000000000000"
          ],
          "data": "0x",
          "blockHash": "0xb20edf3ed72b24961ee4b818841c077ce0f8c31ea8fb6b540fd6cccce79a4449",
          "blockNumber": "0x77b431",
          "blockTimestamp": "0x67c99bf0",
          "transactionHash": "0x99f66677d95d09784fb5f11765fd55f02191e8d966cbf318d61512d997e1de60",
          "transactionIndex": "0x7f",
          "logIndex": "0x94",
          "removed": false
        }
      ],
      "logsBloom": "0x00000000000000000000000000000000000000000000000000000000000000000000000000000000000000000000000002000000000000000000000000000000000000000000000000000008000000000000000000000080002000000000000000000000020000000000000000000800000000000000000000000010000000000000000000000000000000000000000000000000000000000000000000000000000000000000000000000000000000000000000000000000000000000400000000000002000000000000000000000000000000000400000000000000000020000000000000000000000000000000000004000000000000000000000000000000",
      "type": "0x2",
      "transactionHash": "0x99f66677d95d09784fb5f11765fd55f02191e8d966cbf318d61512d997e1de60",
      "transactionIndex": "0x7f",
      "blockHash": "0xb20edf3ed72b24961ee4b818841c077ce0f8c31ea8fb6b540fd6cccce79a4449",
      "blockNumber": "0x77b431",
      "gasUsed": "0x2c999",
      "effectiveGasPrice": "0x154c27f125",
      "from": "0x2ec00933fa8f16cf4397fabaf56406d17c1252a1",
      "to": "0xaf76e904d7d38d4aa9d815f607578bf9927647d1",
      "contractAddress": null
    }
  ],
  "libraries": [],
  "pending": [],
  "returns": {},
  "timestamp": 1741265905,
  "chain": 11155111,
  "commit": "6430ecd"
}